{
  "_format": "hh-sol-artifact-1",
  "contractName": "Math",
  "sourceName": "contracts/Libraries/Math.sol",
  "abi": [
    {
      "inputs": [
        {
          "internalType": "uint256",
          "name": "a",
          "type": "uint256"
        },
        {
          "internalType": "uint256",
          "name": "b",
          "type": "uint256"
        }
      ],
      "name": "add",
      "outputs": [
        {
          "internalType": "uint256",
          "name": "",
          "type": "uint256"
        }
      ],
      "stateMutability": "pure",
      "type": "function"
    },
    {
      "inputs": [
        {
          "internalType": "uint256",
          "name": "a",
          "type": "uint256"
        },
        {
          "internalType": "uint256",
          "name": "b",
          "type": "uint256"
        }
      ],
      "name": "mul",
      "outputs": [
        {
          "internalType": "uint256",
          "name": "",
          "type": "uint256"
        }
      ],
      "stateMutability": "pure",
      "type": "function"
    },
    {
      "inputs": [
        {
          "internalType": "uint256",
          "name": "a",
          "type": "uint256"
        },
        {
          "internalType": "uint256",
          "name": "b",
          "type": "uint256"
        }
      ],
      "name": "sub",
      "outputs": [
        {
          "internalType": "uint256",
          "name": "",
          "type": "uint256"
        }
      ],
      "stateMutability": "pure",
      "type": "function"
    },
    {
      "inputs": [
        {
          "internalType": "uint256[]",
          "name": "values",
          "type": "uint256[]"
        }
      ],
      "name": "sum",
      "outputs": [
        {
          "internalType": "uint256",
          "name": "ret",
          "type": "uint256"
        }
      ],
      "stateMutability": "pure",
      "type": "function"
    }
  ],
  "bytecode": "0x608060405234801561001057600080fd5b50610279806100206000396000f3fe608060405234801561001057600080fd5b506004361061004c5760003560e01c80630194db8e14610051578063771602f714610076578063b67d77c514610089578063c8a4ac9c1461009c575b600080fd5b61006461005f366004610133565b6100af565b60405190815260200160405180910390f35b6100646100843660046101a3565b610108565b6100646100973660046101a3565b61011b565b6100646100aa3660046101a3565b610127565b6000805b82811015610101578383828181106100db57634e487b7160e01b600052603260045260246000fd5b90506020020135826100ed91906101c4565b9150806100f981610212565b9150506100b3565b5092915050565b600061011482846101c4565b9392505050565b600061011482846101fb565b600061011482846101dc565b60008060208385031215610145578182fd5b823567ffffffffffffffff8082111561015c578384fd5b818501915085601f83011261016f578384fd5b81358181111561017d578485fd5b8660208260051b8501011115610191578485fd5b60209290920196919550909350505050565b600080604083850312156101b5578182fd5b50508035926020909101359150565b600082198211156101d7576101d761022d565b500190565b60008160001904831182151516156101f6576101f661022d565b500290565b60008282101561020d5761020d61022d565b500390565b60006000198214156102265761022661022d565b5060010190565b634e487b7160e01b600052601160045260246000fdfea2646970667358221220590be3ee2a703043b7b1693b490ab03d363a1b0e2d95a6ccb4734717e4c8101f64736f6c63430008040033",
  "linkReferences": {},
  "deployedLinkReferences": {}
}