{
  "_format": "hh-sol-artifact-1",
  "contractName": "Strings",
  "sourceName": "contracts/Libraries/Strings.sol",
  "abi": [
    {
      "inputs": [
        {
          "internalType": "bytes",
          "name": "a",
          "type": "bytes"
        },
        {
          "internalType": "bytes",
          "name": "b",
          "type": "bytes"
        }
      ],
      "name": "strcat",
      "outputs": [
        {
          "internalType": "bytes",
          "name": "",
          "type": "bytes"
        }
      ],
      "stateMutability": "pure",
      "type": "function"
    },
    {
      "inputs": [
        {
          "internalType": "string",
          "name": "x",
          "type": "string"
        }
      ],
      "name": "strlen",
      "outputs": [
        {
          "internalType": "uint256",
          "name": "",
          "type": "uint256"
        }
      ],
      "stateMutability": "pure",
      "type": "function"
    }
  ],
  "bytecode": "0x608060405234801561001057600080fd5b5061024a806100206000396000f3fe608060405234801561001057600080fd5b50600436106100365760003560e01c8063367bbd781461003b578063deb72b5814610061575b600080fd5b61004e610049366004610163565b919050565b6040519081526020015b60405180910390f35b61007461006f3660046100fa565b610081565b60405161005891906101c1565b60608484848460405160200161009a94939291906101a3565b6040516020818303038152906040529050949350505050565b60008083601f8401126100c4578182fd5b50813567ffffffffffffffff8111156100db578182fd5b6020830191508360208285010111156100f357600080fd5b9250929050565b6000806000806040858703121561010f578384fd5b843567ffffffffffffffff80821115610126578586fd5b610132888389016100b3565b9096509450602087013591508082111561014a578384fd5b50610157878288016100b3565b95989497509550505050565b60008060208385031215610175578081fd5b823567ffffffffffffffff81111561018b578182fd5b610197858286016100b3565b90969095509350505050565b83858237600084820181815283858237909201918252509392505050565b6000602080835283518082850152825b818110156101ed578581018301518582016040015282016101d1565b818111156101fe5783604083870101525b50601f01601f191692909201604001939250505056fea2646970667358221220ceb121d4d26142be260890fb56b46478c36ee66dbdf5562e47100276c9c9d94264736f6c63430008040033",
  "linkReferences": {},
  "deployedLinkReferences": {}
}